:1008AA0048554D3D200054454D503D2000436F6E44
:1008BA006E6563746564007475726E696E67206F25
:1008CA006E20686561746572202F2074656D7020D2
:1008DA0069732062656C6F7720726F6F6D20746523
:1008EA006D70007475726E696E67206F6666206837
:1008FA0065617465722F2074656D7020697320625A
:10090A0061636B20746F206E6F726D616C20726F01
:10091A006F6D2074656D70007475726E696E6720F4
:10092A006F66662061632F2074656D70206973207D
:10093A006261636B20746F206E6F726D616C2072DE
:10094A006F6F6D2074656D70007475726E696E6775
:10095A00206F6E2061632F2074656D70206973208B
:10096A0061626F766520726F6F6D2074656D7000BD
:10097A006C6F61642031206F6E006C6F616420318E
:10098A00206F6666006C6F61642032206F6E006CA7
:10099A006F61642032206F6666006C6F6164203379
:1009AA00206F6E006C6F61642033206F6666006C86
:1009BA006F61642034206F6E006C6F616420342094
:1009CA006F6666006C6F61642035206F6E006C6F15
:1009DA0061642035206F6666006C6F616420362082
:1009EA006F6E006C6F61642036206F666600544536
:1009FA004D50203D200048554D203D2000656E7425
:100A0A006572206C6F776572206C696D6974006518
:100A1A006E746572207570706572206C696D697488
:100A2A00006175746F20686561746572206F6E006D
:100A3A006175746F20686561746572206F666600FF
:100A4A006175746F206163206F6E006175746F2029
:100A5A006163206F666600436F6E6E6563746564DA
:100A6A0020746F2064657669636500596F75206527
:100A7A006E746572656420696E2074696D65722092
:100A8A006D6F646500456E746572207468652076C2
:100A9A00616C7565206F66206D696E75746573008B
:100AAA0077726F6E6720636F6D6D616E6400455279
:090ABA00524F5220343034200068
:100E5400162F0030003100320033003400350036E4
:100E64000037003800390000027B000002770000E0
:100E7400022B0014022D001902220019022400235F
:080F73008F993099FDC299220B
:100DAD007BFF7A0979F8120DD17528B07B007A0096
:100DBD007926120DD17BFF7A0A7900120DD17B00B5
:040DCD007A007970BF
:100DD100120BFEFF600C120F73740129F9E43AFA49
:070DE10080EE7F0D020F738D
:100EDF00E4FDFCC3ED9FEC9E5015E4FBFA0BBB0049
:0F0EEF00010ABA04F8BBFBF50DBD00010C80E44D
:010EFE0022D1
:100D6C00C2B3D2B27F017E00120D8DC2B20F120D32
:100D7C008DE9C454F0FFE590540F4FF590D2B27F3B
:010D8C000165
:100D8D00E4FDFCC3ED9FEC9E5015E4FBFA0BBB009C
:0F0D9D00010ABA04F8BBFBF50DBD00010C80E4A0
:010DAC002224
:100F1F00A907E9540FFFE590540F4FF590C2B41293
:050F2F000D6CC2B222AE
:100F3400A907E954F0FFE590540F4FF590D2B4128D
:050F44000D6CC2B22299
:100EFF007F02120F1F7F28120F1F7F0C120F1F7FF1
:100F0F0006120F1F7F01120F1F7F037E00020D8D30
:060DE8008B088A09890A4C
:100DEE00E4F50BF50CAB08AA09A90A850C82850B54
:100DFE0083120C17FFFD3395E04D600D120F340575
:100E0E000CE50C70E0050B80DC7FC87E00120D8DAA
:050E1E007F01020F1F1F
:060E85008B0D8A0E890F9F
:100E8B00E4F510F511AB0DAA0EA90F851182851093
:100E9B0083120C17FFFD3395E04D600D120F3405D7
:090EAB0011E51170E0051080DC76
:010EB400221B
:090D2A007B007A007945E4FDFF2D
:100D33008F088D098B0A8A0B890CEF3395E04F706E
:100D430008E509540F44808013AF08EF3395E0FEA4
:100D5300EF64014E700AE509540F44C0FF120F1FE0
:090D6300AB0AAA0BA90C020E85D3
:03002B00020E239F
:100E2300C0E0C0D075D000C007157EB2A4AF7EEF7E
:100E33003395E04F7012157D757E10AF7DEF3395BE
:100E4300E04F7004C2CAC2A4C2CFD007D0D0D0E052
:010E5300326C
:100F4900758CB8758A0CD28C308DFDC28CC28D22FD
:100F5900758CFF758AF1D28C308DFDC28CC28D22C1
:080F7B00C2B5120F49D2B522E4
:0A0F690020B5FD30B5FD20B5FD22D6
:100EB500E4FFFEFDFC30B5FD120F59EF25E0FFEE16
:100EC50033FE30B506EF4401FF800020B5FD0DBDB2
:090ED50000010CED64084C70DC16
:010EDE0022F1
:100AC300120F7B120F69120EB58F6F120EB58F6D59
:100AD300120EB58F6E120EB58F6DAF6FEF3395E0BB
:100AE300F5798F7AF5738F74E56F75F00A120BDC65
:100AF300FF3395E0F5738F7474302574F574E43522
:100B030073F573E56F75F00A120BDCAFF0EF3395F5
:100B1300E0F5798F7A7430257AF57AE43579F579C9
:100B2300857470857A71757225AF6EEF3395E0F534
:100B3300798F7AF5738F74E56E75F00A120BDCFF0B
:100B43003395E0F5738F7474302574F574E435735D
:100B5300F573E56E75F00A120BDCAFF0EF3395E039
:100B6300F5798F7A7430257AF57AE43579F57985D4
:100B73007426857A277528DF752963E4F52A750BB2
:100B8300FF750C08750DAAF50E750F00751070FB37
:100B93007A0079451205AA120D2A7B007A00797032
:100BA300120E857F647E00120D8D7F01120F1F755B
:100BB3000BFF750C08750DB07B007A0079451205A3
:100BC300AA120D2A7B007A007926120E857F647E95
:090BD30000120D8D7F01020F1FBD
:10002E00E4F5A0758921758DFD75985075A80BC2E4
:10003E0099C298C2CCC2CDC2C8F5CDF5CCC2CAC247
:10004E00CFD28E7BFF7A0879B7120DD1120EFF3008
:10005E009803020134120AC3E57C6403457B705A8F
:10006E00AF6EEF3395E0FED3EF952CE52B6480F861
:10007E00EE6480985017E578457770117BFF7A080B
:10008E0079C1120DD1757700757801D2A5AF6EEFDB
:10009E003395E0FEC3EF952EE52D6480F8EE648077
:1000AE00984017E57864014577700FF577F5787B02
:1000BE00FF7A0879ED120DD1C2A5E57C6401457B6E
:1000CE00708DAF6EEF3395E0FED3EF9523E522648E
:1000DE0080F8EE6480985018E578640145777010CA
:1000EE007BFF7A097922120DD1C2A6E4F577F57855
:1000FE00AF6EEF3395E0FEC3EF9525E5246480F8EF
:10010E00EE648098500302005DE578457760030247
:10011E00005D7BFF7A097953120DD1D2A675770057
:10012E0075780102005DAF99C298EF120C56017FEF
:10013E004101A342049F4301E944020B45022D46AF
:10014E0001C747044148046B4A034D4B0259530201
:10015E00535401916101B56201FA64021C65023EBD
:10016E006601D86704566804806A04B274000005FC
:10017E0034D2A07BFF7A09797A120DD17A09797A75
:10018E0002024DC2A07BFF7A097984120DD17A0941
:10019E00798402024DD2A17BFF7A09798F120DD19B
:1001AE007A09798F02024DC2A17BFF7A09799912E1
:1001BE000DD17A09799902024DD2A27BFF7A097983
:1001CE00A4120DD17A0979A48075C2A27BFF7A0997
:1001DE0079AE120DD17A0979AE8064D2A37BFF7A03
:1001EE000979B9120DD17A0979B98053C2A37BFF6F
:1001FE007A0979C3120DD17A0979C38042D2A47BD0
:10020E00FF7A0979CE120DD17A0979CE8031C2A446
:10021E007BFF7A0979D8120DD17A0979D88020D24C
:10022E00A77BFF7A0979E3120DD17A0979E3800F62
:10023E00C2A77BFF7A0979ED120DD17A0979ED12F9
:10024E000DE80204A8120DAD02005D120DAD7BFF8C
:10025E007A0A7907120DD13098FDE4F575F576E539
:10026E007625E0242FF8E6FE08E6AD99B50514E4F0
:10027E00B50610AE75AF76FC7D0A120C448E2B8F30
:10028E002C800A0576E57670D6057580D2C2983038
:10029E0098FDE4F575F576E57625E0242FF8E6FE73
:1002AE0008E6AD99B50512E4B5060EE576252CF5F2
:1002BE002CE575352BF52B800A0576E57670D8057D
:1002CE007580D4C2987BFF7A0A7919120DD13098B5
:1002DE00FDE4F575F576E57625E0242FF8E6FE08C3
:1002EE00E6AD99B50514E4B50610AE75AF76FC7D96
:1002FE000A120C448E2D8F2E800A0576E57670D666
:10030E00057580D2C2983098FDE4F575F576E576E0
:10031E0025E0242FF8E6FE08E6AD99B50512E4B502
:10032E00060EE576252EF52EE575352DF52D800A72
:10033E000576E57670D8057580D4C29802005D12F8
:10034E000DAD7BFF7A0A7907120DD13098FDE4F5D9
:10035E0075F576E57625E0242FF8E6FE08E6AD99EC
:10036E00B50514E4B50610AE75AF76FC7D0A120C19
:10037E00448E228F23800A0576E57670D605758029
:10038E00D2C2983098FDE4F575F576E57625E02431
:10039E002FF8E6FE08E6AD99B50512E4B5060EE5B2
:1003AE00762523F523E5753522F522800A0576E5B7
:1003BE007670D8057580D4C2987BFF7A0A791912A7
:1003CE000DD13098FDE4F575F576E57625E0242F10
:1003DE00F8E6FE08E6AD99B50514E4B50610AE755F
:1003EE00AF76FC7D0A120C448E248F25800A05768A
:1003FE00E57670D6057580D2C2983098FDE4F57515
:10040E00F576E57625E0242FF8E6FE08E6AD99B5FB
:10041E000512E4B5060EE5762525F525E575352498
:10042E00F524800A0576E57670D8057580D4C298D5
:10043E0002005D7BFF7A0A792B120DD1757B007558
:10044E007C037A0A792B803C7BFF7A0A793A120D6B
:10045E00D1757B00757C027A0A793A80277BFF7A08
:10046E000A794A120DD1757B00757C017A0A794A98
:10047E0080127BFF7A0A7955120DD1E4F57BF57C5B
:10048E007A0A7955120DE8E4F577F5787FC8FE8083
:10049E000D7BFF7A0A7961120DD17FC87E00120E94
:1004AE00DF02005D7BFF7A0A7975120DD17FC87E5F
:1004BE0000120EDF7BFF7A0A798F120DD13098FD74
:1004CE00E4F575F576E57625E0242FF8E6FE08E6E8
:1004DE00AD99B5050EE4B5060AE57675F00AA4F5F4
:1004EE007D800A0576E57670DC057580D8C2983079
:1004FE0098FDE4F575F576E57625E0242FF8E6FE11
:10050E0008E6AD99B5050CE4B50608E576257DF54A
:10051E007D800A0576E57670DE057580DAD2CAD260
:10052E00A4C29802005D7BFF7A0A79AA120DD17AD5
:10053E000A79B8120DE87FC87E00120EDF02005D48
:03000000020C9E51
:0C0C9E00787FE4F6D8FD75817E020CE53D
:100BDC00C2D530F707B2D563F0FF05F030E70CB2A1
:100BEC00D5F4048463F0FF05F080018430D502F461
:020BFC000422D1
:100BFE00BB010689828A83E0225002E722BBFE02F5
:090C0E00E32289828A83E4932227
:100C1700BB010CE58229F582E5833AF583E0225092
:100C270006E92582F8E622BBFE06E92582F8E222DC
:0D0C3700E58229F582E5833AF583E49322F6
:100C4400EF8DF0A4A8F0CF8CF0A428CE8DF0A42EC4
:020C5400FE227E
:100C5600D083D082F8E4937012740193700DA3A32D
:100C660093F8740193F5828883E473740293686041
:060C7600EFA3A3A380DF41
:10054E00E517240BF8E60517227808300702780B1A
:10055E00E475F001120C8E020BFE2000EB7F2ED202
:10056E00008018EF540F2490D43440D4FF30040B85
:10057E00EF24BFB41A0050032461FFE51860021582
:10058E0018051BE51B7002051A30070D7808E47577
:10059E00F001120C8EEF020C7C0200037403D207E2
:1005AE008003E4C207F5178B088A09890AE4F51857
:1005BE00F51AF51BE51860077F2012058980F57581
:1005CE0019FFC201C200C202C203C205C206C2089E
:1005DE00120557FF700D3007057F0012059AAF1BED
:1005EE00AE1A22B4255FC2D5C204120557FF24D01D
:1005FE00B40A00501A75F00A781830D50508B6FFFF
:10060E000106C6A426F620D5047002D20380D92492
:10061E00CFB41A00EF5004C2E5D20402079AD201F9
:10062E0080C6D20080C0D20280BCD2D580BAD2059C
:10063E0080B47F201205892002077401B51800408E
:10064E00F112054EFF1205890205C2D208D20680AC
:10065E009512054EFB12054EFA12054EF94A4B70D5
:10066E0006796B7A087BFF20022EE518602A7E0041
:10067E008E82758300120C1760060EEE651970F0EF
:10068E00C2D5EBC0E0EAC0E0E9C0E0EE1207E1D06F
:10069E00E0F9D0E0FAD0E0FB120BFEFF60AAEBC04F
:1006AE00E0EAC0E0E9C0E0120589D0E02401F9D00B
:1006BE00E03400FAD0E0FBE5190460DCD519D980EE
:1006CE00877BFF7A0779DDD202809C7910800279D0
:1006DE0008C206C2088008D2D5790A8004790AC2F7
:1006EE00D5E519047002F519E4FAFDFEFF12054E68
:1006FE00FC7B0820011312054EFD7B1030000A1200
:10070E00054EFE12054EFF7B20EC3382D592D5505E
:10071E0013C3E43000069FFFE49EFEE42001039D18
:10072E00FDE49CFCE4CBF8C201EC700CCFCECDCC3A
:10073E00E824F8F870F38017C3EF33FFEE33FEEDC5
:10074E0033FDEC33FCEB33FB994002FB0FD8E9EBA6
:10075E00300105F8D0E0C448B201C0E00AEC4D4EBD
:10076E004F78207B0070C2EAB5190040BCC0E01281
:10077E0007E3D0F0D0E0200104C4C0E0C4B201C051
:10078E00F0120572D0F0D5F0EB0205C2120C56062F
:10079E005F5306D95806304C062C4206DD4F06E54F
:0F07AE004406E54906454306EB5506CF4606CF00
:1007BD004506CF47088B5006342D06382E065B2B89
:1007CD00063C2306592008742A05F44800000653F8
:1007DD003F3F3F00790AA2D5200314300509B91017
:1007ED00020404B9080104A2D52006025001042018
:1007FD0002689202B518005034C0E07F2030031912
:10080D007F30A20272067205500F12083AC202C260
:10081D0006C205C2087F30800F300503E9C0E01223
:10082D000589300503D0E0F9D0E0B518CC300517B7
:10083D007F30B9100C1205897F583004077F7880FE
:10084D0003B908031205893002057F2D0205897F42
:10085D00202008F87F2B2006F322920280CF286EED
:10086D00756C6C2900D20112054E3001F8C2017869
:10087D001830D50108F60205F42D504349581205DC
:10088D004E2403B405004001E49008869312057AC6
:0D089D00743A12057AD2037518040206D9C8
:100CAA0002002EE493A3F8E493A34003F68001F232
:100CBA0008DFF48029E493A3F85407240CC8C3334B
:100CCA00C4540F4420C8834004F456800146F6DF1A
:100CDA00E4800B0102040810204080900E54E47E48
:100CEA00019360BCA3FF543F30E509541FFEE4930F
:100CFA00A360010ECF54C025E060A840B8E493A3D6
:100D0A00FAE493A3F8E493A3C8C582C8CAC583CA00
:100D1A00F0A3C8C582C8CAC583CADFE9DEE780BEB8
:010E8400006D
:100C7C00BB010689828A83F0225002F722BBFE0157
:020C8C00F32251
:100C8E00FAE6FB0808E6F925F0F618E6CA3AF62267
:10000300EFB40A07740D12000E740A309811A89900
:10001300B8130CC2983098FDA899C298B811F6305D
:0700230099FDC299F5992235
:00000001FF
